:1000000012C02AC029C028C0B2C026C026C024C041
:1000100023C022C021C020C01FC01EC01DC01CC0E4
:100020001BC01AC019C011241FBECFEDCDBF10E0F8
:10003000A0E6B0E0ECE2F3E003C0C89531960D9283
:10004000A039B107D1F710E0A0E9B0E001C01D92DE
:10005000A639B107E1F714C1D3CF1F920F920FB6A3
:100060000F9211240F931F932F933F934F935F93FE
:100070006F937F938F939F93AF93BF93CF93EF93A0
:10008000FF93209190002F5F822F837080939000C8
:100090002170992782709070892B19F080919400BB
:1000A00002C08091930099276AE070E016D1C62FB4
:1000B000CC0F022F1127712F602F6C0F711D4091F3
:1000C000900041FF05C0F72FE62FE458FF4F04C012
:1000D000F72FE62FEC58FF4FC08182B3807C82BBA4
:1000E00055274E5F5F4F21E030E0042E02C0220F03
:1000F000331F0A94E2F7425050408C2F99278076A4
:10010000907035E0959587953A95E1F7282B82B365
:10011000822B82BB41FF03C08091940002C080917A
:10012000930099276AE070E0D8D0F92FE82FEE0FFE
:10013000FF1FE00FF11FE05AFF4F808188BBCF7196
:1001400088B38C2B88BBFF91EF91CF91BF91AF917A
:100150009F918F917F916F915F914F913F912F91DF
:100160001F910F910F900FBE0F901F9018951F9227
:100170000F920FB60F9211242F933F934F935F93DB
:100180006F937F938F939F93AF93BF93EF93FF935F
:10019000CF93DF93CDB7DEB72597DEBFCDBF82B358
:1001A000282F33272F7B8091910091E0892780931E
:1001B0009100882321F0932F822F806402C0932F17
:1001C000822F82BB80919100882309F442C08091E4
:1001D00095008F5F809395008091940099270196F8
:1001E0006CE370E07AD0809394008823A1F480912E
:1001F0009300992701966CE370E06FD08093930091
:10020000882349F4809192009927019668E170E073
:1002100064D080939200FD2FEC2F349642E0423060
:1002200019F42091930002C02091920031E0822FB6
:100230006AE047D0905D90833197822F42D0282F7B
:10024000315037FFF4CF415051F7FD2FEC2F31964D
:1002500044832596F894DEBFCDBFDF91CF91FF9107
:10026000EF91BF91AF919F918F917F916F915F912E
:100270004F913F912F910F900FBE0F901F901895A7
:10028000CFEDD0E0DEBFCDBF8FE187BB8FE381BB79
:100290008E9A10BE83E083BF84E991E19BBD8ABD45
:1002A0001FBC8DE08EBD89B7826489BF789485B705
:1002B0008F7E85BF85B78F7B85BF85B7806285BF01
:1002C000F6CF991B79E004C0991F961708F0961B8A
:1002D000881F7A95C9F78095089597FB092E072600
:1002E0000AD077FD04D00CD006D000201AF4709507
:1002F00061957F4F0895F6F7909581959F4F0895EA
:10030000AA1BBB1B51E107C0AA1FBB1FA617B7073B
:1003100010F0A61BB70B881F991F5A95A9F7809557
:0C0320009095682F792F8A2F9B2F08954D
:10032C00070B0600050E070606050307030F07005B
:10033C00070F070700004840707068705870003055
:10034C003860307060307050785000707870707019
:00000001FF
